:020000040800F2
:10000000304E0020890100082D2500083923000802
:1000100029250008D5030008D92B0008000000009E
:10002000000000000000000000000000512800084F
:10003000E903000800000000B12500087528000849
:10004000A3010008A3010008A3010008A301000800
:10005000A3010008A3010008A3010008A3010008F0
:10006000A3010008A3010008A3010008A3010008E0
:10007000A3010008A3010008A3010008D903000898
:10008000A3010008A3010008A3010008A3010008C0
:10009000A3010008A3010008A3010008A3010008B0
:1000A000A301000809290008A3010008A301000812
:1000B000A3010008A3010008A3010008A301000890
:1000C000A3010008A3010008A3010008A301000880
:1000D000A3010008C92B0008A3010008A301000820
:1000E000A3010008A3010008A301000800F002F822
:1000F00000F03AF80AA090E8000C82448344AAF188
:100100000107DA4501D100F02FF8AFF2090EBAE885
:100110000F0013F0010F18BFFB1A43F0010318473B
:10012000D4420000F4420000103A24BF78C878C1DD
:10013000FAD8520724BF30C830C144BF04680C60ED
:10014000704700000023002400250026103A28BF35
:1001500078C1FBD8520728BF30C148BF0B60704739
:100160001FB51FBD10B510BD00F0F9F81146FFF71F
:10017000F7FF02F06DFD00F017F903B4FFF7F2FF8F
:1001800003BC00F01FF900000948804709480047F8
:10019000FEE7FEE7FEE7FEE7FEE7FEE7FEE7FEE737
:1001A000FEE7FEE704480549054A064B7047000094
:1001B00005290008ED00000830480020304E0020DE
:1001C000304A0020304A0020032A40F2308010F0EC
:1001D000030C00F0158011F8013BBCF1020F6244E2
:1001E00098BF11F801CB00F8013B38BF11F8013B73
:1001F000A2F1040298BF00F801CB38BF00F8013B20
:1002000011F0030300F07980083AC0F0088051F83B
:10021000043B083A51F804CBA0E80810F5E7121D9A
:100220005CBF51F8043B40F8043BAFF30080D207B9
:1002300024BF11F8013B11F801CB48BF11F8012B85
:1002400024BF00F8013B00F801CB48BF00F8012BA8
:10025000704702F0FF0343EA032242EA024200F041
:1002600024B84FF000020429C0F0128010F0030CF3
:1002700000F01B80CCF1040CBCF1020F18BF00F899
:10028000012BA8BF20F8022BA1EB0C0100F00DB848
:100290005FEAC17C24BF00F8012B00F8012B48BFA6
:1002A00000F8012B70474FF0000200B5134694464A
:1002B0009646203922BFA0E80C50A0E80C50B1F1BE
:1002C0002001BFF4F7AF090728BFA0E80C5048BFD2
:1002D0000CC05DF804EB890028BF40F8042B08BF70
:1002E000704748BF20F8022B11F0804F18BF00F86C
:1002F000012B704770477047704710B5203AC0F027
:100300000B80B1E81850A0E81850B1E81850A0E8E8
:100310001850203ABFF4F5AF5FEA027C24BFB1E881
:100320001850A0E8185044BF18C918C0BDE81040C4
:100330005FEA827C24BF51F8043B40F8043B08BFCD
:100340007047D20728BF31F8023B48BF11F8012B94
:1003500028BF20F8023B48BF00F8012B70477546C4
:1003600000F02CF8AE4605006946534620F0070021
:10037000854618B020B5FFF715FFBDE820404FF0C7
:1003800000064FF000074FF000084FF0000BAC469E
:10039000ACE8C009ACE8C009ACE8C009ACE8C009E9
:1003A00021F007018D46704710B50446AFF3008079
:1003B0002046BDE81040FFF7E0BE0000004870474F
:1003C0001800002001491820ABBEFEE726000200FD
:1003D00070470000FEE7000080B540F2D000C2F296
:1003E000000000F02BFC80BD7047000080B50120AC
:1003F000002102F039F980BD10B500F075F900F068
:1004000093F80446C00603D500F074F800F044F8F1
:10041000C4F3401010BD000010B5044600F0B4F85D
:1004200000F0A8F800F09CF8A168102002F042F952
:10043000A1680A2002F03EF91120012102F014F90E
:10044000FFF7D4FF207900F02BF9607800F014F961
:10045000207800F02BF9E07800F0FAF8A07800F0AE
:10046000EFF8A179E07900F0E1F802F08BF810BD27
:1004700080B5002002F0D4F8C0F3400080BD000039
:1004800080B5002002F0CCF800F041004038B0FA0E
:1004900080F0400980BD000080B500F045F840F0D4
:1004A0001001072002F0E0F880BD000080B500F0E8
:1004B0003BF840F02001072002F0D6F880BD000094
:1004C00080B582B0E2208DF8070002F051F840F2CA
:1004D00014104FF0640CC2F200000DF107010DF191
:1004E00006020123CDF800C001F036FB02F054F8FB
:1004F00002B080BD80B582B0E1208DF8070002F027
:1005000037F840F214104FF0640CC2F200000DF105
:1005100007010DF106020123CDF800C001F01CFB1C
:1005200002F03AF802B080BD80B582B0FF208DF8AD
:10053000070002F01DF840F214104FF0640CC2F2F4
:1005400000000DF107010DF106020123CDF800C0F6
:1005500001F002FB02F020F89DF8060002B080BD19
:1005600080B5002002F05CF840F04201002002F06B
:100570007BF880BD80B5002002F052F800F0FE014B
:10058000002002F071F880BD80B502F005F801F09E
:10059000E5FF0020082102F067F801203F2102F06A
:1005A00063F80220032102F05FF80320032102F028
:1005B0005BF80420032102F057F80520022102F025
:1005C00053F806200E2102F04FF807207E2102F09A
:1005D0004BF81120002102F047F81120002102F011
:1005E00043F81220002102F03FF81320002102F00E
:1005F0003BF81420002102F037F81520002102F00A
:1006000033F81620002102F02FF81720112102F0F4
:100610002BF81C20002102F027F81D20002102F0F9
:1006200023F8FFF74DFFFFF765FF80BD80B501F0B0
:100630000F0141EA0010C1B2042002F015F880BD9C
:1006400080B50238C1B2032002F00EF880BD000070
:1006500010B50446002001F0E3FF022C014604D04F
:10066000012C08BF01F0FB0101E041F00401002072
:1006700001F0FAFF10BD000010B50446062001F09D
:10068000CFFF00F0D70124B1022C08BF41F00801D0
:1006900001E041F02001062001F0E6FF10BD00005E
:1006A00080B50146052001F0DFFF80BD10B504468E
:1006B000062001F0B5FF00F0F90040EA4400C1B2A5
:1006C000062001F0D1FF10BD80B5FFF72DFF810698
:1006D00007D4C00658BF80BDFFF7DEFEFFF70AFF54
:1006E00080BDFFF7E3FE80BD70B582B00546A02057
:1006F0000C468DF8070001F03BFF40F21416C2F2E1
:1007000000064FF0640C0DF107010DF106023046B2
:100710000123CDF800C001F01FFA304629462246D9
:10072000642301F057F901F037FF9DF8060002B08D
:1007300070BD0000EFF3108072B600BFFEE700004E
:10074000B0B5026890F82030013B012B27D8D2F8D1
:100750000002012340F00100C2F80002D1F814E0C9
:10076000CC690EF01F0003FA00F0D2F81C326FEAD9
:10077000000C8343012CC2F81C3216D064BBD2F8A3
:100780000C3203EA0C03C2F80C32CB688C8844EAC2
:10079000034302EBCE04C4F840320B4614E0416A36
:1007A00041F4802141620120B0BDD2F80C320343F4
:1007B000C2F80C320B688C8844EA034302EBCE0487
:1007C000C4F8403201F10C038C681B8843EA0443EF
:1007D00002EBCE04C4F84432D2F804328D6943EA05
:1007E0000004D1F810E0096A002D08BF03EA0C04E8
:1007F000C2F80442D2F81432BEF1000F43EA0004FA
:1008000008BF03EA0C040129C2F8144204D1D2F84B
:100810001C120843C2F81C02D2F8000220F00100AA
:10082000C2F800020020B0BD10B590F82040013C95
:10083000012C0CD8D0F800C079B1DCF81040A40726
:100840000FD100F1240101204FF4001276E000F1F5
:10085000240101204FF4802270E0DCF80C40A40752
:1008600070D00CEB011CDCF8B0410CF5D87E14F014
:1008700004049460DCF8B04119BFE4085460640DCE
:100880001460DEF800400CF5DA7E04F00204D46057
:10089000DCF8B44124075ABFDEF8004004F00F042E
:1008A00008241461DEF800400029C4F30724946191
:1008B000DEF800404FEA14445461DCF8B8211A70A5
:1008C000026802EB0112D2F8B8214FEA12225A70E4
:1008D000026802EB0112D2F8B8214FEA12429A7074
:1008E000026802EB0112D2F8B8214FEA1262DA7004
:1008F000026802EB0112D2F8BC211A71026802EB05
:100900000112D2F8BC214FEA12225A71026802EB9E
:100910000112D2F8BC214FEA12429A71026802EB2E
:100920000112D2F8BC214FEA1262DA71006814BFDA
:1009300000F1100100F10C01002020220B681A4385
:100940000A6010BD00F1240101204FF40012F5E708
:10095000B0B5C8B1044690F8200010B9204600F0A8
:1009600077F82068016841F00101016000F080FB28
:10097000054600BF20684168C90707D100F078FB31
:10098000401B0B28F6D312E00120B0BD016821F016
:100990000201016000F06CFB054600BF2068416861
:1009A00089070DD500F064FB401B0B28F6D3606A65
:1009B000052140F400306062012084F82010B0BDB1
:1009C000217E0268012922F0800308BF42F08003E3
:1009D0000360617E0268012922F0400308BF42F0F3
:1009E00040030360A17E0268012922F0200308BFB2
:1009F00042F020030360E17E0268012942F0100307
:100A000008BF22F010030360217F0268012922F051
:100A1000080308BF42F008030360617F02680129F0
:100A200022F0040308BF42F004030360D4E901C2CA
:100A3000D4E9033561691A432A431143ACF1010239
:100A40001143C16100200121606284F82010B0BD13
:100A5000B0B586B000210591CDE90311006846F2DA
:100A60000042C4F200029042029101D006B0B0BD33
:100A700041F21800C4F20200426840F6004442F01D
:100A8000007242604268C4F2010402F000720192F6
:100A9000019A026802AD42F008020260006800F0AC
:100AA0000800019001984FF48070CDE90201049193
:100AB0002046294600F0C8F94FF400700290022049
:100AC0000390032005902046294600F0BDF904203C
:100AD000C4F20100016849F6FF72CFF6FF0211402F
:100AE00041F0E06141F48041016006B0B0BD00001A
:100AF000B0B5044690F8200001281DD1022084F8EA
:100B000020002068016821F00101016000F0B0FAC6
:100B1000054600BF20684068C00713D000F0A8FA5F
:100B2000401B0B28F6D3606A40F400306062052059
:100B300084F820000120B0BD606A40F400206062AB
:100B40000120B0BD00206062B0BD0000014690F8F9
:100B50002100022813D10868D1E90FC3026822F0EE
:100B60000E020260026822F001020260012000FA17
:100B700003F2CCF8042081F82100002002E00420D8
:100B800088630120002281F82020704780B590F80A
:100B90002110022923D10268116821F00E01116091
:100BA0002F211368C4F202018A4240F20401C4F208
:100BB000020123F00103136016DD3023C4F20203A7
:100BC0009A421DD04423C4F202039A421BD05823F8
:100BD000C4F202039A421BD14FF4803320E0042177
:100BE00081630121084680BD0823C4F202039A42B2
:100BF0000CD01C23C4F202039A4209D110230FE047
:100C00004FF480730CE04FF4805309E0012307E0B8
:100C100001F1680C4FF08073624508BF4FF48013F8
:100C20000B60012180F82110426B002180F8201018
:100C30000AB190470021084680BD000010B5016848
:100C4000D0E90FCEDCF800200B685C0727D5042420
:100C500004FA0EF4144022D00A68920603D40A68FB
:100C600022F004020A6002682F21C4F202018A42C3
:100C700040F20401C4F202015ADD3023C4F202033F
:100C80009A426DD04423C4F202039A426BD0582397
:100C9000C4F202039A426BD14FF4802370E09C07A8
:100CA0002AD5022404FA0EF4144025D00A689206CC
:100CB00006D40A6822F00A020A60012180F8211095
:100CC00002682F21C4F202018A4240F20401C4F2F8
:100CD000020139DD3023C4F202039A4256D0442384
:100CE000C4F202039A4254D05823C4F202039A4237
:100CF00054D14FF4003359E01B0758BF10BD0823EF
:100D000003FA0EF31A4012D00A6822F00E020A60AB
:100D1000012101FA0EF2CCF80420816380F8211041
:100D2000016B0022002980F8202018BF884710BDE1
:100D30000823C4F202039A4218D01C23C4F202030F
:100D40009A4215D140231BE00823C4F202039A42C1
:100D500022D01C23C4F202039A421FD1202325E093
:100D60004FF480630CE04FF4804309E0042307E074
:100D700001F168044FF08063A24208BF4FF4800382
:100D80000B60C16A0029D2D0884710BD4FF40073B0
:100D90000CE04FF4005309E0022307E001F168047E
:100DA0004FF00073A24208BF4FF400130B60816A3A
:100DB0000022002980F82020B9D0884710BD00000B
:100DC000014600284FF0010008BF70472DE9F043AD
:100DD000D1F800C04FF6F873CBF6FD734CF6CD4258
:100DE0006344CCF6CC42A3FB02236FF0030707EA6F
:100DF0009303002701F10C09C4F20207D1E9012E87
:100E000099E87002D1F81C80C1E90F73022381F8C0
:100E10002130DCF8003043F6F077BB431A4342EA56
:100E20000E0222432A43324342EA090242EA0802FE
:100E3000CCF8002000228A6381F8210081F820206C
:100E40000020BDE8F04370472DE9F04F84B00E68F4
:100E50000290002E00F0038140F20C4E40F2004759
:100E600041F200420298C4F2010EC4F20107C4F23A
:100E700001020423002401254FF0000A4FF000096D
:100E8000904208BF032300930AE000BF01250E68CB
:100E90000AF1010A36FA0AF204F1040400F0DF80D4
:100EA00005FA0AFB16EA0B08F1D04A684FF6FF7301
:100EB000C1F210039A4211DC122A54D80298DFE8DA
:100EC00002F0350A43475353535353535353535329
:100ED0005353534A4E00D1F80C9045E04FF6FF7340
:100EE000C1F221039A4210DC0023C1F211030298DF
:100EF0009A421BD00023C1F212039A4216D000235B
:100F0000C1F221039A4211D02EE00023C1F2220344
:100F100002989A420AD00023C1F231039A4205D0C6
:100F20000023C1F232039A421ED100BF8A6842B147
:100F3000012A14BFC0F814B0C0F810B04FF008096F
:100F400012E04FF004090FE0CA6802F108090BE053
:100F50004FF0000908E0CA6802F1040904E0CA6819
:100F600002F10C0900E0029822460346B8F5807FA2
:100F700024BF203A04331D684FF00F0C0CFA02F620
:100F8000B54309FA02F22A431A60CA79D2067FF5FC
:100F90007DAF41F21803CDF80490C4F202031A6841
:100FA000F34642F001021A601A684FEA9A0E02F004
:100FB00001020392039AA7F57E72B94652F82E30C9
:100FC00004F00C0740F600060CFA07F5C4F201061F
:100FD000B04223EA050C10D040F60043C4F20103EE
:100FE00098420CD041F20003C4F201039842009BE6
:100FF0004FF0010508BF022303E0002300E00123B6
:101000000125BB4043EA0C0342F82E304E684F46A0
:10101000F202D9F8082054BF22EA080242EA080284
:10102000DE46DDF80490BA60DEF80020B30254BF5B
:1010300022EA080242EA0802CEF800207A68B303E6
:1010400054BF22EA080242EA08027A603A68F303CF
:1010500054BF22EA080242EA08023A6017E704B0E5
:10106000BDE8F08F002A08BF090401617047000045
:1010700044F25070C2F200000068704740F209006C
:1010800044F25071C2F20000C2F2000100780A6816
:10109000104408607047000080B542F20000C4F2BE
:1010A0000200016841F010010160032000F090F897
:1010B0000F2000F005F800F055F8002080BD00007A
:1010C000B0B586B041F21801C4F202010A680446C4
:1010D00042F400620A60096801A801F4006101910C
:1010E0000199694600F030F900F068F94DF6836126
:1010F000C4F21B31A0FB01014FF0FF3000EB914126
:1011000040F26C1042F60042C2F20000C4F201024A
:1011100040F2E7330025C0E90021C0E90253056130
:10112000856100F015FE0546C0B940F26C10C2F2B0
:10113000000000F03DFE054680B9192000F034F8AB
:101140000F2C0AD819202146002200F031F840F275
:101150000C00C2F20000046000E00125284606B041
:10116000B0BD000082B041F21800C4F20200016874
:10117000022241F001010160016801F001010191C9
:101180000199416841F080514160406800F0805011
:10119000009000980420C4F20100016862F31A6113
:1011A000016002B07047000080B501F017FD80BDFE
:1011B00070B514460D46064601F020FD294622462C
:1011C00001F0B6F90146304601F020FD70BD000087
:1011D00080B501F02DFD80BD2DE9F04381B00028E0
:1011E00000F0878042F20008C4F202080446D8F8F2
:1011F00000000D4600F0070088420CD2D8F800002D
:1012000020F007002843C8F80000D8F8000000F0DC
:101210000700A8426DD1206841F204098107C4F299
:10122000020917D5410705D5D9F8001041F4E0614E
:10123000C9F80010010705D5D9F8001041F4605134
:10124000C9F80010D9F80010A26821F0F00111438C
:10125000C9F80010C00745D1D8F8000000F0070019
:10126000A8420CD9D8F8000020F007002843C8F89D
:101270000000D8F8000000F00700A84239D120682B
:10128000410707D5D9F80010E26821F4E061114365
:10129000C9F80010000708D5D9F80000216920F42A
:1012A000605040EAC100C9F8000000F099F8D9F890
:1012B000001044F2CC32C1F30311C0F60002515CBD
:1012C00040F2000220FA01F140F20C00C2F20000EC
:1012D0000068C2F200021160FFF7F2FE002001B0C8
:1012E000BDE8F0836068012807D159F8041C890320
:1012F0000CD4012001B0BDE8F08359F8041C022889
:1013000002D18901F5D501E08907F2D5D9F800109D
:1013100021F003010843C9F80000FFF7A9FE0646C3
:1013200041F28837D9F80000616800F00C00B0EB9A
:10133000810F91D0FFF79CFE801BB842F2D90320A9
:1013400001B0BDE8F08300000F22026041F2040208
:10135000C4F20202136803F003034360136803F04E
:10136000F0038360136803F4E063C36012684FF412
:10137000E06303EAD202026142F20000C4F202001A
:10138000006800F0070008607047000040F20000AD
:10139000C2F200000068704780B5FFF7F7FF41F226
:1013A0000401C4F20201096844F2DC32C1F30221F3
:1013B000C0F60002515CC84080BD000080B5FFF758
:1013C000E5FF41F20401C4F20201096844F2DC3293
:1013D000C1F3C221C0F60002515CC84080BD0000CC
:1013E00041F2040CC4F2020CDCF8003003F00C00F3
:1013F000082841F20020C0F27A0018BF7047C3F3FA
:1014000083420AA18A5CD90305D440F60010C0F2D9
:101410003D0050437047DCF8001008A3C1F3404181
:10142000595C5043B0FBF1F0704700BF0203040564
:10143000060708090A0B0C0D0E0F10100102000020
:101440002DE9F04182B0002800F0C4800446007805
:1014500041F20006C007C4F2020643D0706800F0F3
:101460000C00042817D0706800F00C00082802D186
:101470007068C0030FD465689DB1B5F5803F06D094
:101480003068B5F5A02F0DD140F480203060306871
:1014900040F480300CE03068800323D5606808BBDE
:1014A00098E0306820F480303060306820F480208C
:1014B0003060FFF7DDFD002D054610D03068800359
:1014C00010D4FFF7D5FD401B6428F7D908E100BF11
:1014D000FFF7CEFD401B64284FF0030077D830683B
:1014E0008003F5D42078800718D5706810F00C0FB1
:1014F00007D0706800F00C00082826D17068C0037F
:1015000023D43068800702D52069012862D1306871
:10151000616920F0F80040EAC100306020780007DF
:101520003DD5A06938B30020C4F242200121C0F8A3
:101530008014FFF79DFD0546706A80072DD4FFF7E4
:1015400097FD401B0228F7D9CAE02069002840F225
:101550000000C4F2422000F09A8001210160FFF7F0
:1015600087FD054630688007D1D4FFF781FD401B19
:101570000228F7D9B4E00020C4F242200021C0F8CC
:101580008014FFF775FD0546706A800707D5FFF7E1
:101590006FFD401B0228F7D9A2E001F02BF820785C
:1015A00040071BD4E5698DB1706800F00C00082875
:1015B0004CD1012D0ED07068216A00F480328A422D
:1015C00008D1616A00F47010884203D1002002B093
:1015D000BDE8F081012002B0BDE8F081F069C000F3
:1015E0000BD4F0694FF0010840F08050F061F069D1
:1015F00000F080500190019801E04FF0000847F2A0
:101600000007C4F200073868C00510D4386840F4F9
:1016100080703860FFF72CFD054600BF3868C005B4
:1016200005D4FFF725FD401B6428F7D958E0E5688D
:10163000002D3DD0012D05D0306A052D39D140F067
:1016400004003062306A40F0010038E00027C4F244
:10165000422700203866FFF70BFD022D05460BD10F
:101660003068800154D5FFF703FD401B02284FF07E
:101670000300F5D9ABE700BF30688001A6D5FFF7BE
:10168000F7FC401B02284FF00300F5D99FE700212B
:101690000160FFF7EDFC0546306880077FF53EAF3F
:1016A000FFF7E6FC401B02284FF00300F4D98EE759
:1016B000306A20F001003062306A20F004003062AD
:1016C000FFF7D6FC002D054641F2883714D000BF45
:1016D000306A800713D4FFF7CBFC401BB842F7D920
:1016E000032002B0BDE8F081FFF7C2FC401BB84206
:1016F0004FF003003FF66BAF306A8007F4D4B8F1C7
:10170000000F3FF44FAFF06920F08050F06149E7DF
:10171000206AB0F5803F05D17168A26821F40031DC
:10172000114371607168626A21F4741110430843B7
:10173000706001203866FFF79BFC0446306880012A
:101740003FF544AFFFF794FC001B02284FF0030065
:10175000F4D93CE770B538B10446406A30B1002096
:10176000206104F1140007E0012070BD6068B0F54D
:10177000827F03D004F11C00002101600026A662D4
:1017800094F8510020B9204684F8506000F038F8F1
:10179000022084F8510094E8071001F48271036874
:1017A00002F4044223F040030360236911440CF463
:1017B0000062114403F002026369114403F0010264
:1017C000A369E569114403F40072114405F038027D
:1017D000256A114405F08002A56A114305F4005200
:1017E00011430160042101EA13414160C16921F400
:1017F0000061C1610120666584F85100304670BD0A
:1018000070B586B0002640F600040596CDE9036663
:10181000C4F20104006804F520518842029601D008
:1018200006B070BD41F21800C4F20200016802ADBA
:1018300041F480510160016801F4805101910199E6
:10184000016841F0040101600068294600F00400CD
:1018500001900198A020029002200390032005909F
:101860002046FFF7F1FA4020CDE90206204629463E
:101870000496FFF7E9FA06B070BD00002DE9F043C9
:1018800081B0044690F8510001280FD16068994654
:1018900016460D46B0F5827F02D1A068002854D0CC
:1018A00094F85000012803D102278EE0022789E036
:1018B000012784F85070FFF7DBFB002D18BF002EC6
:1018C00000F080808046042084F85100002060658C
:1018D000A563A687E6872063A086E086A1682064CA
:1018E000B1F5004F606408D12068016821F0400123
:1018F0000160016821F480410160206801684906A7
:1019000003D4016841F040010160E168E08F49B310
:10191000002847D009F101050AE000BFC068A16BAB
:1019200021F8020BA163E08F0138E087E08FC8B394
:1019300020688168C907F1D1FFF79AFB002DF5D027
:10194000A0EB08004845F1D327E0042084F85100BB
:10195000204629462A463346CDF8009000F0FCF890
:10196000074632E0F0B109F101050AE0007BA16B06
:101970000870A06B0130A063E08F0138E087E08F32
:1019800080B120688168C907F0D1FFF771FB002D95
:10199000F5D0A0EB08004845F1D3012084F85100B0
:1019A00003270FE020464946424600F0A7FE0028E4
:1019B0001CBF20206065606D0127002804BF84F8EB
:1019C00051700027002084F85000384601B0BDE86F
:1019D000F08300002DE9F04182B0044690F85000F9
:1019E000012803D1022002B0BDE8F08101201D468C
:1019F00016460F4684F85000FFF73AFB94F8511052
:101A000001295CD18046002F4FF0010018BF002E45
:101A100000F09B80032084F851000020606527635C
:101A2000A686E686A063A087E087A168C4E91000C7
:101A3000B1F5004F08D12068016821F04001016034
:101A4000016841F48041016020680168490603D4BF
:101A5000016841F0400101606168731EE268B1FAFB
:101A600081F1B3FA83F349095B09B2F5006F41EAEA
:101A7000030126D139B1216B0988C160B81C2063EC
:101A8000E08E0138E086E08E002843D06E1C09E02D
:101A9000216B31F8022BC2602163E08E0138E086B1
:101AA000E08EB8B3206881688907F1D4FFF7E0FAC7
:101AB000002EF5D0A0EB0800A842F1D325E00220CB
:101AC00043E039B139780173206B01302063E08E37
:101AD0000138E086E08EE8B16E1C0AE0216B0978DF
:101AE0000173206B01302063E08E0138E086E08EC8
:101AF00080B1206881688907F0D4FFF7B9FA002E19
:101B0000F5D0A0EB0800A842F1D3012084F85100E1
:101B100003201AE020462946424600F01FFE002816
:101B20001CBF20206065A06838B9002001902068A3
:101B3000C1680191806801900198606D00284FF0A4
:101B4000010004BF84F851000020002184F85010E7
:101B500002B0BDE8F08100002DE9F04381B00446F9
:101B600090F85000012803D1022001B0BDE8F083B5
:101B700001201E4615460F4684F85000FFF778FAFC
:101B800094F85110814601290CD06068B0F5827F2D
:101B900075D104294FF0020040F0B280A1680029FD
:101BA00040F0AE80002F4FF0010018BF002D00F074
:101BB000A780002E00F0A48094F851000021042892
:101BC0001CBF052084F851006165A563E687A687E0
:101BD0002763E6862068A686216461640168490659
:101BE00003D4016841F0400101606168731EE2683E
:101BF000B1FA81F1B3FA83F3DDF8208049095B097A
:101C0000B2F5006F41EA03013BD139B1216B09887C
:101C1000C160B81C2063E08E0138E086012608F11F
:101C2000010500BFE08E10B9E08F00286ED020685B
:101C3000816889070CD5E18E012E09D141B1216B54
:101C4000002631F8022BC2602163E18E0139E18662
:101C50008168C9070AD0E18F41B1C068A16B012634
:101C600021F8020BA163E08F0138E087FFF700FA4B
:101C7000002DD7D0A0EB09004045D3D33CE0022093
:101C80003EE039B139780173206B01302063E08E7A
:101C90000138E086012608F1010500BFE08E08B991
:101CA000E08F98B32068816889070DD5E18E012EF9
:101CB0000AD149B1216B002609780173206B0130EC
:101CC0002063E08E0138E08620688168C9070BD068
:101CD000E18F49B1C068A16B01260870A06B01308B
:101CE000A063E08F0138E087FFF7C2F9002DD5D05F
:101CF000A0EB09004045D1D3012084F85100032016
:101D0000002184F8501001B0BDE8F0832046414620
:101D10004A4600F023FD18B1202060650120EFE75E
:101D2000A06838B9002000902068C16800918068E0
:101D300000900098606D00284FF0010004BF84F807
:101D400051000020DCE700007047000070470000F1
:101D5000002804BF0120704710B5044690F83D00EC
:101D600028B9002084F83C00204600F01FF802202B
:101D700084F83D002068211D00F0CEFD012084F88C
:101D8000460084F83E0084F83F0084F8400084F860
:101D9000410084F8420084F8430084F8440084F849
:101DA000450084F83D00002010BD00007047000091
:101DB00090F83D1001291CBF01207047022180F8D6
:101DC0003D10006840F2FF72C168C4F20002904208
:101DD00041F00101C16005DCB0F1804F0ED040F24E
:101DE000004107E042F60041C4F20101884205D0FB
:101DF00040F60001C4F20001884206D1816801F07A
:101E00000701062904BF00207047016841F0010165
:101E100001600020704700007047000010B50446C4
:101E200000680169890744BFC1685FEA817138D4DD
:101E300020680169490744BFC1685FEA41713CD429
:101E400020680169090744BFC1685FEA017141D494
:101E500020680169C90644BFC1685FEAC16145D411
:101E600020680169C9071CBFC1685FEAC1714AD116
:101E700020680169090644BFC1685FEA016149D46D
:101E800020680169490644BFC1685FEA416148D4DE
:101E900020680169890644BFC1685FEA816147D44F
:101EA00010BD6FF002010161012121778069800777
:101EB00045D02046FFF7B0FF47E06FF00401016115
:101EC00002212177806910F4407F41D02046FFF73E
:101ED000A3FF43E06FF00801016104212177C0698D
:101EE00080073ED02046FFF797FF40E06FF01001DB
:101EF000016108212177C06910F4407F3AD0204663
:101F0000FFF78AFF3CE06FF001010161204600F01D
:101F10003FF8ADE76FF0800101612046FFF714FF45
:101F2000AEE76FF040010161204600F03DF8AFE7F9
:101F30006FF0200101612046FFF708FF10BD204629
:101F400000F022F8204600F021F8002020776FE70B
:101F5000204600F019F8204600F018F800202077FD
:101F60006EE7204600F010F8204600F00FF8002041
:101F700020776DE7204600F007F8204600F006F8CD
:101F8000002020776CE700007047000070470000D9
:101F900080B5006842F60041C4F20101884208BFE2
:101FA000FFF76CF880BD000070470000704700002C
:101FB0007047000070B582B0036804461868D9689D
:101FC0005D6900F02F02202A01F0200205D122B124
:101FD000204600F023FD02B070BD5FEA007C08D00F
:101FE00005F0010E11F4907F8EF001054FD1002D08
:101FF0004DD0226B0840C1063FD5012A3DD10020BB
:10200000019018680190586801900198586940063D
:1020100000F19C80A08DE18DE28D002A1CBF401A4A
:102020005FEA004102D102B070BD00BF216851E8F3
:10203000031F226821F4907142E80313002BF5D1AD
:10204000216851E8051F226821F0010142E80513CB
:10205000002BF5D1202184F842100021216300BF1C
:10206000216851E8031F226821F0100142E80313A0
:10207000002BF5D102216163AEE0010600F1B280D0
:102080004006D0D5204600F0BDFC02B070BDC307AD
:1020900018BF11F4807303D0636C43F001036364D1
:1020A00000F00406012383EA96062E4303D1666CF2
:1020B00046F00206666400F0020683EA56032B43EC
:1020C00003D1636C43F00403636452EA0E0218BF49
:1020D0000122BCF1000F04D51AB1626C42F0080273
:1020E0006264626C002A9ED00840800602D52046B9
:1020F00000F094FC20684069616C00F0400001F041
:102100000801401878D0204600F054FC206840694F
:1021100040066CD5206850E8050F216820F040008B
:1021200041E80502002AF5D1E06B00285FD042F6B5
:10213000A511C0F600014163FEF728FD00283FF419
:1021400072AFE06B416B884702B070BDE06B016815
:1021500049688AB2002A3FF466AFA38D9A42BFF461
:1021600062AFE1858069202831D000BF206850E847
:10217000030F216820F4807041E80302002AF5D1A2
:10218000206850E8050F216820F0010041E80502B1
:10219000002AF5D1206850E8050F216820F04000A2
:1021A00041E80502002AF5D1202084F842000020F1
:1021B000206300BF206850E8030F216820F0100062
:1021C00041E80302002AF5D1E06BFEF7BFFC0220D4
:1021D0006063A08DE18D401A81B22046FFF7E6FED4
:1021E00002B070BD204600F0C5FC02B070BD2046B4
:1021F000FFF7DEFE02B070BD2046FFF7D9FE0020DB
:10220000606402B070BD0000002804BF0120704768
:1022100010B5044690F8410028B9002084F8400029
:10222000204600F021F8242084F841002068C1688D
:1022300021F40051C160204600F054FC206801697F
:1022400021F490410161416921F02A014161C16895
:1022500041F40051C16000202021606484F84110E5
:1022600084F84210606310BD2DE9F04186B000276C
:1022700040F600050597CDE903770446C4F2010551
:10228000006805F540518842029702D006B0BDE8CB
:10229000F08141F21806C4F2020630680DF1080818
:1022A00040F4804030603068414600F48040019046
:1022B0000198306840F004003060306800F004009D
:1022C000019001984FF400700290022003900320C7
:1022D00005902846FEF7B8FD4FF48060CDE902076F
:1022E000284641460497FEF7AFFD40F2D005A6F51B
:1022F0007C60C2F200058021C5E900072846C5E9D7
:102300000271C5E90477C5E90677FEF759FD002893
:1023100018BFFEF70FFA252000210022E5636C624A
:10232000FEF746FF2520FEF73FFF06B0BDE8F0812F
:102330007047000070470000FEE7000010B58AB04B
:1023400040F2A80046F20041C2F20000C4F20001CF
:1023500000244FF460234FF4801C102280E8160004
:10236000C0E90343C0E905C48483FEF7F1FA0028FD
:1023700018BFFEF7DFF901200A210890CDE90044DB
:10238000CDE90244CDE90441CDE9064040F2A80080
:10239000C2F2000069460994FEF7D2F90AB010BDF6
:1023A00080B582B041F21400C4F20200016800223C
:1023B00041F0010101600068002100F0010001907E
:1023C00001980F20FEF7F4FE0F20FEF7EDFE02B09D
:1023D00080BD00002DE9F04385B04FF0000841F2C8
:1023E0001800CDE90388CDE90188C4F20200016834
:1023F00040F6004441F0100101600168C4F201049C
:1024000001F0100100910099016804F5806541F028
:10241000200101600168002201F020010091009973
:1024200001684FF4005641F004010160016801F0B9
:10243000040100910099016841F008010160006801
:102440004FF4005100F00800009000982846FEF775
:1024500009FE2046012101220127FEF703FE204646
:10246000022100224FF00209FEF7FCFD01A880E8DE
:10247000C00301AE28463146FEF7E6FC0320CDE955
:102480000177049020463146CDF80C80FEF7DCFC45
:1024900020463146CDE90197CDE90389FEF7D4FC0A
:1024A00005B0BDE8F083000080B540F2141043F29F
:1024B0000001C2F20000C4F201014FF48272002355
:1024C00080E80E0000F114014FF4007C4FF0100E74
:1024D000C0E9033381E808500A21C0E90833C0E9A4
:1024E0000A31FFF737F9002818BFFEF723F980BD3E
:1024F00080B540F2B41043F60001C2F20000C4F20D
:10250000010100234FF00C0C4FF4E13280E80E0083
:10251000C0E90333C0E905C3C361FFF775FE0028B6
:1025200018BFFEF707F980BDFEE70000FEE70000D8
:1025300000F0070080F00703042B28BF04234FF0AE
:10254000FF3C03380CFA03F338BF00209943814065
:102550000CFA00F022EA00000843704780B540F60C
:102560000040C4F2010002210022FEF77BFD80BD85
:1025700080B540F60040C4F2010001210022FEF7C0
:1025800071FD80BD80B540F60040C4F2010002211B
:102590000122FEF767FD80BD80B540F60040C4F221
:1025A000010001210122FEF75DFD80BD0000000059
:1025B000EFF30980BFF36F8F0D4B1A6820E9F00F1E
:1025C00010602DE908404FF0BF0080F3118801F042
:1025D00051FA4FF0000080F31188BDE808401968F7
:1025E0000868B0E8F00F80F30988BFF36F8F704779
:1025F0000402002081B040F20000C2F20000006836
:1026000044F6D351C1F26201A0FB0101480A0090D7
:1026100000BF0098411E00280091F9D101B0704719
:1026200010B582B08DF80700FFF7A2FF40F2141436
:10263000C2F200044FF0640C0DF107010DF1060227
:1026400020460123CDF800C0FFF786FA0DF1050101
:10265000204601226423FFF711F9FFF79DFF9DF843
:10266000050002B010BD000010B582B040F020009F
:102670008DF807008DF80510FFF77AFF40F214146B
:10268000C2F200044FF0640C0DF107010DF10602D7
:1026900020460123CDF800C0FFF75EFA0DF10501D9
:1026A000204601226423FFF795F9FFF775FF02B07A
:1026B00010BD0000B0B582B040F020000C468DF88F
:1026C0000700FFF755FF40F21415C2F200054FF066
:1026D000640C0DF107010DF1060228460123CDF827
:1026E00000C0FFF739FA2846214605226423FFF788
:1026F00071F9FFF751FF02B0B0BD000010B50446FC
:1027000040689446B0F5827F0A461AD1A168B1F5B7
:10271000004F02D0B1F5806F04D121680B6823F01F
:1027200040030B60B0F5827F0BD1A068B0F5806FDD
:1027300007D120460121634600F022F840B900206D
:1027400010BD20468021634600F01AF80028F6D01C
:10275000606D40F020006065032010BD10B5134689
:102760000A468021044600F00BF800280FBF002025
:10277000606D40F02000606518BF032010BD0000B0
:102780002DE9F04381B01E4690460D468146FEF786
:102790006FFC301A00EB0807FEF76AFC40F20001FC
:1027A000C2F200010968C1F3CB3179430091D9F835
:1027B000001089682940A94219D1064608F1010490
:1027C00006E000BFD9F8000080682840A8420ED17A
:1027D000002CF7D0FEF74CFC801BB8420BD20098BF
:1027E0000099002808BF0746481E0090EAE700202D
:1027F00001B0BDE8F083D9E900014268B1F5827FFC
:1028000022F0E00242600BD1D9F80810B1F5004F78
:1028100002D0B1F5806F03D1016821F04001016061
:10282000D9F82810B1F5005F07D1016821F40051F3
:102830000160016841F400510160012089F85100F4
:10284000002089F85000032001B0BDE8F0830000AB
:10285000074B19680868B0E8F00F80F30988BFF3E8
:102860006F8F4FF0000080F311884EF00D0E70470F
:102870000402002080B54FF0BF0080F31188BFF341
:102880006F8FBFF34F8F01F049FB30B14EF604500C
:10289000CEF200004FF080510160002080F31188DB
:1028A00080BD000070B590B006AC20462821FDF731
:1028B000FAFC002501204FF480310690CDE9071580
:1028C0000A9002264FF4E010CDE90D610F902046EA
:1028D0000595CDE90355CDE90155FEF7B1FD78B970
:1028E0000F20CDE901064FF480600395CDE9040582
:1028F00001A80221FEF770FC002804BF10B070BDD3
:10290000FDF718FF7047000080B540F26C10C2F26E
:102910000000FFF783FA80BD10B540F2FF7E036828
:10292000C4F2000E42F6004C7045C4F2010C05DC06
:10293000B0F1804F0AD040F2004203E0604505D07C
:1029400040F60002C4F20002904203D14A6823F02C
:1029500070031343704505DCB0F1804F0AD040F29C
:10296000004203E0604505D040F60002C4F20002D8
:10297000904203D1CA6823F44073134323F08002CA
:102980004B69D1F800E08C681A4360450260C4626C
:10299000C0F828E002D10969CCF83010012141616A
:1029A00010BD000080B5406A0021C185C184FFF7D9
:1029B000FFFA80BD016851E8031F026821F490719D
:1029C00042E80313002BF5D1016851E8051F0268A6
:1029D00021F0010142E80513002BF5D1016B01291B
:1029E0000AD100BF016851E8031F026821F01001FD
:1029F00042E80313002BF5D1202180F8421000217A
:102A00000163704780B50168CA6822F04002CA605D
:102A1000202180F84110FFF78DFC80BD80B582B089
:102A200090F8421022291ED18268B2F5805F02D14F
:102A3000016900294AD0816AB2F5805F07D00AB9DE
:102A4000026922B10268526802F07F0201E0026866
:102A500052680A700121826A11448162C18D013974
:102A60000A04C18501D002B080BD0168CA6822F0A5
:102A70002002CA60CA6822F48072CA604A6922F0E1
:102A800001024A61202180F8421000214163026B5B
:102A9000012A23D1016300BF016851E8031F0268C6
:102AA00021F0100142E80313002BF5D101680A68F8
:102AB000D20606D5002201920A6801924968019166
:102AC0000199818DFFF772FA02B080BD0168826AB8
:102AD00049686FF35F2111800221BCE7FFF728FCF2
:102AE00002B080BD10B504460068D4E902C2236973
:102AF000016921F4405111430161616943EA0C020B
:102B00001143C26841F20C639A431143C1604169A9
:102B1000A26921F44071114343F60002C4F201029C
:102B20009042416102D0FEF737FC01E0FEF746FC1F
:102B30006268192148439100B0FBF1F048F21F513F
:102B4000C5F2EB11A0FB01235A096FF0630302FBEE
:102B50000300322303EB0010A0FB0101F02303EA82
:102B60005113206803EB0212C1F343111144816039
:102B700010BD000090F84110212923D18168B1F5E2
:102B8000805F01D1016931B1016A02684B1C0362A7
:102B90000978516007E0016A036831F8022B6FF38E
:102BA0005F225A600162C18C01390A04C18418BFD6
:102BB00070470068C16821F08001C160C16841F0C0
:102BC0004001C1607047000080B540F2B410C2F20D
:102BD0000000FFF7EFF980BDFEE70000002848BFC6
:102BE000704700F01F01012202FA01F14EF20012BB
:102BF0004009CEF2000242F8201070474EF60C5009
:102C0000CEF200000068C0F3022070474EF6145365
:102C100000F00F02CEF2000309011A4400F16043F4
:102C2000B0F1FF3FC8BF03F5644211707047000068
:102C30004EF60C51CEF200010A684FF6FF031A401F
:102C400060F30A2242F0806040F0FD700860704737
:102C500082B0FEF721FAFFF725FEFFF7BBFBFFF777
:102C60009FFBFFF721FCFFF743FCFFF767FB40F2F8
:102C7000A800C2F20000FDF73BFF44F60800C2F2D4
:102C80000000019043F2F9700126C0F6000023A174
:102C900080220023009601F007F90E2044F600047C
:102CA000009043F29970C2F20004C0F600001FA128
:102CB00080220023019401F0F7F844F2FC70C2F284
:102CC000000044F2E434019043F22570C0F60004A1
:102CD000C0F60000214680220023009601F0E4F8AF
:102CE00044F6040543F2CD70C2F20005C0F60000C0
:102CF0002146802200230096019501F0D5F80F208F
:102D00000421002200F00AFF44F29071C2F2000197
:102D1000086000F065FE00BFFEE700BF4E5246208F
:102D20005472616E736D6974000000004E5246204B
:102D3000747820696E697400F0B581B00D4644F670
:102D4000200140F20426C2F20001C2F200060F6820
:102D500031680446081D00F043FC10B1601C0FD020
:102D600027E0306844F26472C06AC2F200020121B6
:102D7000136801FA00F023EA00001060601C18D10B
:102D8000BDB144F2E870C2F200004168326891605F
:102D90008A683368DA6032688B6804325A60326855
:102DA00004328A603168486101680131016001B014
:102DB000F0BD3068E41944600AD340F21020C2F23A
:102DC000000000683168043100F02EFC01B0F0BD55
:102DD00040F20C20C2F2000000683168043100F0BB
:102DE00023FC44F2C470C2F2000001688C4238BF78
:102DF000046001B0F0BD00002DE9F041044600F090
:102E00003FFC44F25470C2F20000016840F2042515
:102E100001310160C2F20005296844F2E478C2F28F
:102E2000000849B1D8F8000060B92868E16AC06AB2
:102E3000884298BF2C6005E02C600068012801D111
:102E400000F06EF944F26070C2F20000016844F2D2
:102E50006472013101606164E06AC2F20002012122
:102E6000136881401943116040F2182100EB800083
:102E7000C2F2000101EB80025368271D9E68A36027
:102E8000E6609E689F607760626151F820200132A1
:102E900041F8202000F004FCD8F8000088B1286830
:102EA000E16AC06A884228BFBDE8F0814EF604504E
:102EB000CEF200004FF080510160BFF34F8FBFF39F
:102EC0006F8FBDE8F081000070B500F0D9FB44F6CB
:102ED0002406C2F20006306810B100F0E1FB70BDBC
:102EE00044F26874C2F20004204600F08DFB44F204
:102EF0007C75C2F20005284600F086FB40F20820EF
:102F0000C2F20000046040F21420C2F2000005602A
:102F10000A201021002200F001FE306000F0C0FB0A
:102F200070BD0000F0B581B044F25875C2F20005E2
:102F30002868E0B144F60C0644F25477C2F2000669
:102F4000C2F2000700F09CFBF068C468201D00F08E
:102F500047FB38680138386028680138286000F07D
:102F60009FFB204600F058F828680028EAD101B0FD
:102F7000F0BD000080B5026C002A08BF80BDD0E91A
:102F800002C31344C360634524BF0368C360C368BE
:102F900008461946FDF718F980BD000070B5866B2C
:102FA000036C0446E3B115461AB3E0681A46FDF710
:102FB0000BF9E168206C2268091A9142E16003D2A2
:102FC000A16840420844E060A81EB0FA80F04009C1
:102FD0003146002E18BF01210840361A002516E0A0
:102FE0002068002598B9A06801F064F8A56005463E
:102FF0000DE060681A46FDF7E7F8216CD4E901029C
:10300000002508446060904224BF20686060711C05
:103010002846A16370BD000010B50446006B00F0A7
:103020004DFB204600F04AFB10BD000040F2082195
:10303000C2F2000109680A68B2FA82F35B09036010
:10304000002A0EBF0020C8680068704740F21824AC
:103050004EF60455C2F20004CEF200054FF0805641
:10306000FFF760FF20680228FAD32E60BFF34F8F6E
:10307000BFF36F8FF4E70000B0B5049D002914BFC3
:103080002A602D60C5E90F01284601211C4600F089
:103090006BFD85F84C40B0BD2DE9F0470A9C824697
:1030A000206B16460F46DDE908599100A522984687
:1030B000FDF7CFF8206B00EB8600A0F1040020F0B4
:1030C000070677B104F13400002100BF7A5C425456
:1030D0007A5C1AB10F2901F10101F7D3002084F8BD
:1030E0004300201D0E2D28BF0E25E562E56400F08B
:1030F00097FA04F1180000F093FA85F00F00A06130
:103100003046514642462461646200F059FAB9F1F2
:10311000000F206018BFC9F80040BDE8F08700002C
:10312000B0B540F218250024C2F20005281900F0BD
:103130006BFA1434B4F5967FF8D144F29474C2F269
:103140000004204600F060FA44F2A875C2F20005BF
:10315000284600F059FA44F2D070C2F2000000F0A4
:1031600053FA44F60C00C2F2000000F04DFA44F2AB
:10317000E870C2F2000000F047FA40F20C20C2F200
:103180000000046040F21020C2F200000560B0BDF3
:1031900080B58C46014641F804CF9445006108D9BA
:1031A0009A4201D29C4511D240F20820C2F200009E
:1031B00007E08069D21A824208D240F21420C2F29B
:1031C0000000006800F030FA002080BD012080BDC2
:1031D00010B5044600F054FAA06BB0FA80F0440930
:1031E00000F05EFA204610BD10B5044600F048FA23
:1031F000A06BE16B401AB0FA80F0440900F050FA7D
:10320000204610BD06480068006880F3088862B652
:1032100061B6BFF34F8FBFF36F8F00DF00BF00BFFA
:1032200008ED00E070B540F20822C2F20002126818
:103230000646D2680D46D468201D00F0D1F994F8F6
:103240002800410704D400F0FE0084F8280004E0C0
:10325000204631462A4600F0C3F8216A20468847B6
:1032600070BD00002DE9F04186B044F62404C2F29E
:103270000004206802A9002200F052FD00286BD053
:103280000DF1040802AD06E020682946002200F096
:1032900047FD002860D00298B0F1FF3F03DCDDE974
:1032A00003200599904702980028EDD4049E706988
:1032B00010B1301D00F094F9404600F0C3F80299B7
:1032C00001390829E0D80746DFE801F014142C057D
:1032D0003E14142C050096F82800039940F00100D4
:1032E00086F82800B161394430463A463B46FFF73C
:1032F0004FFFC9E796F82800039BB16940F0010031
:1033000086F82800194430463A46FFF741FF002866
:10331000BAD096F8280041070BD400F0FE0086F8DA
:1033200028000DE096F8280000F0FE0086F828003E
:10333000AAE70398B1693A460144304600F050F8D4
:10334000316A304688479FE796F828008107EBD41A
:10335000304600F0B3F997E706B0BDE8F081000011
:1033600070B582B00E46044600F07CFB01A800F068
:1033700069F8019919B100F057FF02B070BD054618
:103380004EB9A54207D300F04FFF20462946FFF76C
:1033900049FF02B070BD4EB140F21420C2F20000ED
:1033A00000680068B0FA80F0420900E0002244F6AC
:1033B0002400C2F200000068611B00F091F900F0E7
:1033C00033FF0028D9D14EF60450CEF200004FF062
:1033D00080510160BFF34F8FBFF36F8F02B070BD9C
:1033E00070B5054680690E460144284633461446AA
:1033F000FFF7CEFE002808BF70BD00BFA869296A8C
:10340000064428468847A86922468119284633463B
:10341000FFF7BEFE0028F1D170BD000040F20C2085
:10342000C2F200000168096819B10068C06800684C
:1034300001E04FF0FF3044F2C471C2F200010860B5
:103440007047000070B5044600F062FD40F2FC16C3
:10345000C2F2000631680546884203D200F008F83F
:10346000012000E0002020602846356070BD00008B
:1034700010B540F20824C2F200042068016849B186
:10348000C0684FF0FF310068FFF7CCFE206801688C
:103490000029F5D140F21421C2F200010A68086047
:1034A000226010BD81B0002000904FF0BF0080F37B
:1034B0001188BFF36F8FBFF34F8F00BF00980028B4
:1034C000FCD001B07047000082B001AC2046FFF78D
:1034D000ADFD0199FFF744FFFFF7C4FEF6E70000DA
:1034E000F0B581B0044600F0CBF894F94560012EA8
:1034F0000FDB04F1240500BF286850B1284600F016
:1035000021FE002818BF00F025FA70B2013E012804
:10351000F2DCFF2684F8456000F0C2F800F0B0F855
:1035200094F94470012F0EDB04F11005286850B1A6
:10353000284600F007FE002818BF00F00BFA78B20A
:10354000013F0128F2DC84F8446000F0A9F801B0E2
:10355000F0BD000010B520F0070101F1080484421D
:1035600098BF0024410708BF044600F07BFA40F2F0
:103570000020C2F20000016891B1DCB144F2C071D8
:10358000C2F200010B681A1944F2F734A2424FF05C
:10359000000410D89A420ED900680A60C4180AE0E4
:1035A00040F25031C2F20001073121F00701016001
:1035B000002CE3D1002400F037FE204610BD0000AF
:1035C000034643F2A540C0F600004FF0807C21F096
:1035D000010103E90310A3F1400043F8202C7047D8
:1035E000D0E90123016993604B68D0F808C0834299
:1035F000CCF8042001D182684A6000220261086888
:1036000001380860086870474FF0FF31024642F801
:10361000081F00214260C0E90322016070470000DA
:10362000002101617047000080B5D1F800C01CF195
:10363000010207D000F108039E465B681A686245E4
:10364000FAD901E0D0F810E0DEF8042008614A6001
:103650009160C1F808E0CEF8041001680131016002
:1036600080BD0000D0F800C0436808619A684B60D4
:103670008A609A68996051600CF10101016070479D
:103680004FF0BF0080F31188BFF36F8FBFF34F8FF0
:1036900040F21000C2F20000016801310160704781
:1036A00040F21000C2F2000001680139016018BF49
:1036B0007047002080F311887047000070470000B9
:1036C0004EF21000CEF2000000210160816041F650
:1036D0003F11C0F201014160072101607047000005
:1036E00070B515460E460446FFF7CAFF94F844002D
:1036F000FF2804BF002084F8440094F84500FF2808
:1037000004BF002084F84500FFF7CAFFA06B28B96A
:1037100004F1240031462A4600F034F92046FFF730
:10372000DFFE70BD82B040F2A80440F2800540F296
:10373000780640F29C0744F29079C2F20004C2F28B
:103740000005C2F20006C2F20007C2F200090DF144
:10375000040800BF204600212A463346FDF764F8DE
:103760000028F7D12868D6E90012A0F55073C7F8F1
:103770000620C7F80210B3F5B07F38BF4009388083
:10378000D9F80000414600220023019700F02CFAEE
:10379000052000F04BF8DDE740F24430C2F20000B3
:1037A00040F203110522018040F66421827040F24C
:1037B0000402C0F20551C2F20002C0E90112FCF796
:1037C0002BFE002000F04CF8FEE7000040F24434ED
:1037D000C2F2000407E000BF2046FCF71DFE4FF4D4
:1037E0007A7000F023F8FCF743FE0028F4D0FCF7D1
:1037F00047FE0028F3D1EFE782B044F29075C2F2A1
:10380000000501AC28682146002200F089FA012851
:10381000F8D101980A21FCF7EFFD002818BFFCF74A
:1038200053FF012000F002F8ECE7000010B558B19A
:10383000044600F017F920460021FFF77DFA00F05A
:10384000F3FC002818BF10BD4EF60450CEF2000065
:103850004FF080510160BFF34F8FBFF36F8F10BDEA
:1038600070B50446FFF70CFF40F20426002CC2F2AC
:10387000000608BF3468251D2846FFF7B1FEA0B931
:10388000E06A40F2182200EB8001C2F2000252F816
:10389000211051B944F26472C2F20002012113688E
:1038A00001FA00F023EA00001060A06A18B104F1E8
:1038B0001800FFF795FE44F26070C2F20000016844
:1038C000013101603068844209D044F25470C2F280
:1038D0000000016801390160FFF7A0FD0DE044F62A
:1038E0000C00C2F200002946FFF7BCFE44F25870FB
:1038F000C2F20000016801310160FFF7D1FE3068BB
:10390000844202D02046FFF787FB44F2E470C2F203
:103910000000006870B13068844218BF70BD4EF678
:103920000450CEF200004FF080510160BFF34F8F82
:10393000BFF36F8F70BD000044F2C871C2F2000186
:103940000968016044F62001C2F200010968416083
:103950007047000044F62C00C2F200000121016013
:103960007047000010B50C4640F20421C2F200017D
:1039700009681831FFF758FE20460121FFF7DCF9EE
:1039800010BD000010B540F2042CC2F2000CD0F8BB
:1039900004E0DCF80030002AC3F81CE0DEF8083050
:1039A000DCF800402362DCF80030DEF8084003F168
:1039B00018036360DCF8003003F11803CEF8083018
:1039C000DCF800309862036803F10103036018BF5C
:1039D0004FF0FF3108461146FFF7AEF910BD000069
:1039E00080B582B0002044F2BC7C009043F24D00D0
:1039F000C2F2000CC0F6000018A180220023CDF80E
:103A000004C000F051FA012808BF00F0B9FC0128F9
:103A10001CD14FF0BF0080F31188BFF36F8FBFF34D
:103A20004F8F44F2C470C2F200004FF0FF310160CA
:103A300044F2E470C2F200000121016044F620006B
:103A4000C2F200000021016000F04AF844F2F030B8
:103A5000C0F60000006802B080BD00BF49444C457C
:103A60000000000044F25C70C2F200000168013105
:103A70000160704744F25C70C2F20000006830B12F
:103A800044F62C00C2F2000001210160704744F6A8
:103A90002C00C2F200000021016044F26470C2F206
:103AA00000000068B0FA80F0C0B2C0F11F0040F220
:103AB000182100EB8000C2F2000101EB800050F8F9
:103AC000041F4968021D9142016001D149680160EB
:103AD000006840F20421C068C2F20001086070472B
:103AE00080B54EF62050CEF20000016841F47F010F
:103AF0000160016841F07F410160FFF7E1FD40F2A4
:103B00001000C2F2000000210160FFF77BFBFFF70D
:103B1000B1FFFFF7C7FC002080BD0000F0B581B009
:103B200030B106460F46A0FB010119B1002418E090
:103B3000002416E007FB06F010F1510F0ED85030AC
:103B40001546FFF707FD58B1044600F15002304614
:103B500039462B460094FFF78FFA02E0002400E07C
:103B60000024204601B0F0BD70B528B30446C06BF8
:103B700010B30D46216C0026A0FB010191BBFFF79D
:103B80007FFD2068D4E90F12A66302FB010301390F
:103B900001FB0201C4E90103FF20E16084F8440055
:103BA00084F8450004F110004DB1FFF72DFD04F13C
:103BB0002400FFF729FD12E00026304670BD0168A1
:103BC00069B100F0BFFA50B14EF60450CEF20000D9
:103BD0004FF080510160BFF34F8FBFF36F8FFFF73E
:103BE0005FFD0126304670BD2DE9F04F83B01D46C4
:103BF000884604460292FFF743FDA06B022D58D081
:103C0000E16B884255D304F110074FF0000B6E466C
:103C10000DF108094FF0000A0298002873D0BAF19C
:103C2000000F04D13046FFF787FE4FF0010AFFF77F
:103C300037FDFFF717FFFFF723FD94F84400FF2837
:103C400008BF84F844B094F84500FF2808BF84F802
:103C500045B0FFF725FD3046494600F0F5F800284D
:103C600054D12046FFF7C0FAB0B102993846FFF7A9
:103C700079FE2046FFF734FC00F0D6FA88B94EF6FC
:103C80000450CEF200004FF080510160BFF34F8F1F
:103C9000BFF36F8F05E000BF2046FFF721FC00F067
:103CA000C3FAFFF7EDFCA06B022D02D0E16B884256
:103CB000B2D2204641462A46FFF770F954F8241F35
:103CC00079B1204600F03EFAB8B14EF60450CEF27B
:103CD00000004FF080510160BFF34F8FBFF36F8F33
:103CE0000BE050B14EF60450CEF200004FF0805180
:103CF0000160BFF34F8FBFF36F8FFFF7D1FC01203F
:103D000003B0BDE8F08FFFF7CBFC04E02046FFF7DF
:103D1000E7FB00F089FA002003B0BDE8F08F000057
:103D20002DE9F04F85B0054600F1100924300C460E
:103D300000904FF0000B02AF0DF1100A002004922A
:103D4000019009E02846FFF7CBFB00F06DFA28460A
:103D5000FFF73EFA002872D1FFF792FCD5F83880C1
:103D6000B8F1000F1ED028462146FFF703F9A8F14D
:103D70000100A863286970B1484600F0E3F950B12A
:103D80004EF60450CEF200004FF080510160BFF3B8
:103D90004F8FBFF36F8FFFF783FC0020012698B988
:103DA0004EE000BF049848B1019820B93846FFF7AB
:103DB000C3FD01200190012030B941E0FFF770FC04
:103DC0000026002000283BD0FFF76AFCFFF74AFEE0
:103DD000FFF756FC95F84400FF2808BF85F844B06B
:103DE00095F84500FF2808BF85F845B0FFF758FC57
:103DF0003846514600F028F80028A3D12846FFF79E
:103E0000E7F9B0B104990098FFF7ACFD2846FFF739
:103E100067FB00F009FA00289ED14EF60450CEF25E
:103E200000004FF080510160BFF34F8FBFF36F8FE1
:103E300092E72846FFF754FB00F0F6F98CE70026DE
:103E4000304605B0BDE8F08FB0B50C460546FFF72B
:103E500017FC44F62000C2F2000001682068421CF2
:103E60000FD044F2C8736A68C2F20003D3F800C0EE
:103E7000914208D32B689C4505D000202060012486
:103E80000EE000240CE0891A884206D9401A20600E
:103E90002846FFF751FD002402E0002020600124A5
:103EA000FFF7FEFB2046B0BD2DE9F04383B0074687
:103EB0009000984615468946FFF74CFB90B10646A0
:103EC0005C20FFF747FB50B15C210446FCF7C9F9C1
:103ED000266354B94FF0FF3003B0BDE8F08330469D
:103EE000FFF7ECFB0024002CF4D0DDE90A102A4691
:103EF000CDE900103846494643460294FFF7CCF816
:103F00002046FEF779FF012003B0BDE8F0830000F2
:103F100044F62000C2F20000006870472DE9F04F1F
:103F200081B044F25C70C2F20000006850B144F20B
:103F3000CC70C2F20000016801310160002001B0C4
:103F4000BDE8F08F44F62000C2F20000016811F1D4
:103F50000108C0F8008014D340F20C2040F2102277
:103F6000C2F20000C2F2000201681368036044F26A
:103F7000C8701160C2F20000016801310160FFF7F2
:103F80004DFA44F2C471C2F20001086840F2182EE2
:103F90008045C2F2000E01D2002072E040F20C2BEC
:103FA000C2F2000BDBF800004FF0000900680028A7
:103FB0005CD044F2647AC2F2000A00202BE000BF19
:103FC000C7F82890116801391160F96ADAF8002001
:103FD00001238B401A43CAF8002001EB81020EEB4B
:103FE00082035E687B61B468BE60FC60B468B560E3
:103FF00065605EF8223001334EF8223040F2042230
:10400000C2F200021268D26ADBF80030914288BF27
:104010000120196871B3DBF80020D268D7683D46EB
:1040200055F8042F904527D3D7E902637A69B36026
:104030005368D7F80CC0AB42CCF8046001D1FB68E0
:104040005360C7F814901368013B1360BA6A002AE2
:10405000BBD0D7E9073607F118019E6056683C6A65
:104060008E426360ACD1396A5160A9E74FF0FF32EC
:10407000002005E04FF0FF3244F2C471C2F20001AB
:104080000A6040F20421C2F200010968C96A01EB2A
:1040900081015EF82110012944F62C01C2F20001D1
:1040A00088BF01200968002918BF012001B0BDE8C0
:1040B000F08F000070B5002841D00446C16A006D41
:1040C000E26C013820654FF0000037D1914208BF03
:1040D00070BD261D3046FFF783FA44F2647CC2F2BD
:1040E000000C48B9E06A0122DCF8003002FA00F066
:1040F00023EA0000CCF80000E26CC2F10F00E2629B
:10410000A0610120DCF8003000FA02F11943CCF87C
:10411000001040F2182C02EB8201C2F2000C0CEBF2
:1041200081035A6863619568A260E560956896604E
:104130006E605CF8212001324CF8212070BD002017
:1041400070BD000010B5C068C068D0E90731826A50
:104150009960516800F1180CD0F820E06145CEF864
:10416000043001D1016A5160002181621168013976
:10417000116044F25C71C2F20001096871B144F24D
:10418000D072C2F20002516882628B68C161036220
:104190008B68C1F808C0C3F804C02FE0D0E9023131
:1041A00042699960516800F1040CD0F80CE0614557
:1041B000CEF8043001D1C1685160116844F26474D2
:1041C00001391160C16AC2F200044FF0010E226889
:1041D0000EFA01F31A43226040F2182201EB81012A
:1041E000C2F2000202EB8102516842618B68816079
:1041F000C3608B68C1F808C0C3F804C011680131FE
:10420000116040F20421C2F20001C06A0968C96A63
:10421000884291BF002044F62C01C2F20001012027
:1042200088BF086010BD00002DE9F04F81B0FFF796
:1042300027FA44F25C70C2F20000016801390160A3
:10424000006830B10024FFF72BFA204601B0BDE82A
:10425000F08F44F25470C2F200000068002800F0B1
:104260008B8044F2D07AC2F2000ADAF8001044F6E9
:104270002C080029C2F200085CD044F2647B40F2B2
:10428000182440F2042E4FF0000C4FF00109C2F246
:10429000000BC2F20004C2F2000E25E008680138EB
:1042A0000860F06ADBF8001009FA00F21143CBF85D
:1042B000001000EB800104EB810255687261AB686D
:1042C000B560F360AB68AF605F6054F821200132E5
:1042D00044F82120DEF80010C96A884228BFC8F8D7
:1042E0000090DAF8000008B3DAF80C10CE68D6E9CE
:1042F0000752B76AAA607A6806F11801306A8A42E2
:10430000456001D1306A7860C6F828C03868013845
:104310003860D6E90202716982604A68371DF56823
:10432000BA426860BAD1F0684860B7E7002E18BF9B
:10433000FFF774F844F2CC74C2F2000425685DB152
:10434000012600BFFFF7EAFD002818BFC8F800608B
:10435000013DF7D100202060D8F8000070B14EF682
:104360000450CEF200004FF080510160BFF34F8F38
:104370000124BFF36F8F66E7002464E7002462E73F
:1043800080B582B0FEF7A0FD44F62400C2F2000022
:10439000006898B1022044F6280C009043F2C9400E
:1043A000C2F2000CC0F6000006A14FF48072002398
:1043B000CDF804C0FFF778FD02B080BD002002B048
:1043C00080BD00BF546D7220537663000000000072
:1043D00000000000010203040607080900000000B5
:1043E0000102030443414E2052656365697665000E
:1043F0000E00000018440008000000201800000013
:10440000280100083044000818000020184E000061
:1044100044010008000000000024F40014141414E7
:104420001401000010000000AAAAAAAA00000000BF
:04000005080000ED02
:00000001FF
